:100000000C9463000C948B000C948B000C948B006C
:100010000C948B000C948B000C948B000C94330686
:100020000C948B000C948B000C948B000C948B0024
:100030000C948B000C948B000C948B000C948B0014
:100040000C94E9050C948B000C94B5060C948F0667
:100050000C948B000C948B000C948B000C948B00F4
:100060000C948B000C948B000000000024002700EF
:100070002A000000000023002600290000000008DC
:10008000000201000003040700000000000000005F
:10009000010204081020408001020408102001021F
:1000A0000408102000000000250028002B00040494
:1000B0000404040404040202020202020303030310
:1000C00003030200E70611241FBECFEFD8E0DEBF16
:1000D000CDBF11E0A0E0B1E0EEE1F8E102C0059093
:1000E0000D92A637B107D9F722E0A6E7B1E001C02B
:1000F0001D92AE34B207E1F710E0C3E6D0E004C0D1
:100100002197FE010E94070CC236D107C9F70E9451
:1001100032070C940D0C0C940000833081F028F40D
:10012000813099F08230A9F008958730A9F08830A5
:10013000C9F08430B1F4809180008F7D03C080913C
:1001400080008F7780938000089584B58F7784BD79
:10015000089584B58F7DFBCF8091B0008F77809319
:10016000B00008958091B0008F7DF9CFCF93DF93D9
:10017000282F30E0F901E458FF4F8491F901E0574E
:10018000FF4FD491F901E255FF4FC491CC23A1F068
:1001900081110E948D00EC2FF0E0EE0FFF1FEE5852
:1001A000FF4FA591B491EC91ED2381E090E009F42B
:1001B00080E0DF91CF91089580E090E0FACF1F9327
:1001C000CF93DF93282F30E0F901E458FF4F84915B
:1001D000F901E057FF4FD491F901E255FF4FC49167
:1001E000CC23A9F0162F81110E948D00EC2FF0E096
:1001F000EE0FFF1FEC55FF4FA591B4918FB7F89408
:10020000EC91111108C0D095DE23DC938FBFDF91F4
:10021000CF911F910895DE2BF8CFCF93DF9390E01D
:10022000FC01E057FF4F249182559F4FFC018491C0
:100230008823C9F090E0880F991FFC01E859FF4F0F
:10024000A591B491FC01EC55FF4FC591D49161117A
:100250000DC09FB7F8948C91209582238C93888150
:10026000282328839FBFDF91CF910895623051F4F6
:100270009FB7F8943C91822F809583238C93E881DB
:100280002E2BEFCF8FB7F894EC912E2B2C938FBFA2
:10029000EACFCF92DF92EF92FF92CF936C018091E1
:1002A00000018D3049F08F3F09F44CC0CF91FF9091
:1002B000EF90DF90CF900895E2ECF0E0C491C7FD9D
:1002C000F5CF61E08DE00E940D01CC2319F0C23022
:1002D00009F0D9C0F12CE12C60E472E48FE090E0E9
:1002E000A70196010E94E80BBA01A90141505109EA
:1002F00061097109C23009F094C092E04F3F510585
:100300006105710581F07CF060E970ED83E090E0BB
:10031000A70196010E94E80BBA01A90141505109B9
:100320006109710993E08091B100887F892B8093E6
:10033000B100C13009F4BFC0C23009F4D1C0C1114D
:10034000B5CF8FC08DE080930001E2ECF0E0C49166
:10035000CF3F09F4ABCFC13021F150F0C23009F4E6
:100360003EC0C7FDA3CF61E08DE00E940D01AFCF7D
:1003700014BC15BC84B5826084BD85B5816085BD23
:10038000EBEBF0E0E491F0E0EE0FFF1FEC55FF4FD8
:1003900085919491EDE9F0E0E491E0938C01C0E067
:1003A00090CF10928000109281008091810088602F
:1003B0008093810080918100816080938100EBEBCC
:1003C000F0E0E491F0E0EE0FFF1FEC55FF4F859158
:1003D0009491EDE9F0E0E491E0938B0172CF1092FB
:1003E000B0001092B1008091B00082608093B000A4
:1003F0008091B10081608093B100EBEBF0E0E4917B
:10040000F0E0EE0FFF1FEC55FF4F85919491909314
:100410008A0180938901EDE9F0E0E491E09388019D
:1004200050CF4F3F510561057105A1F09CF068E484
:1004300078EE81E090E0A70196010E94E80BBA01F6
:10044000A901415051096109710994E0C1116BCFB3
:1004500093E003C092E0C11166CF85B5887F892BF8
:1004600085BD47BD8FEF9FEFDC0180939501909391
:100470009601A0939701B093980180916E008260DD
:1004800080936E0013CF960150E040E060E072E18F
:100490008AE790E00E94E80BBA01A9014150510996
:1004A00061097109C13009F044CF80918100887FD2
:1004B00081608093810050938900409388008FEF82
:1004C0009FEFDC018093910190939201A09393019F
:1004D000B093940180916F00826080936F00E6CEAC
:1004E0004093B3008FEF9FEFDC0180938D019093D9
:1004F0008E01A0938F01B093900180917000826073
:1005000080937000D3CE3FB7F8948091840190918E
:100510008501A0918601B091870126B5A89B05C0F1
:100520002F3F19F00196A11DB11D3FBFBA2FA92F72
:10053000982F8827BC01CD01620F711D811D911D6F
:1005400042E0660F771F881F991F4A95D1F70895DB
:100550008F929F92AF92BF92CF92DF92EF92FF92D3
:100560004B015C010E9483026B017C010E948302AB
:100570006C197D098E099F09683E734081059105BC
:10058000A8F321E0821A9108A108B10888EEC80EEC
:1005900083E0D81EE11CF11C81149104A104B10474
:1005A00029F7FF90EF90DF90CF90BF90AF909F9092
:1005B0008F9008959091000189130BC0E2ECF0E058
:1005C000E4919FEF90930001E13049F028F0E23090
:1005D00061F060E00C94DF0010926E00FACF909111
:1005E0006F009D7F90936F00F4CF909170009D7F7E
:1005F0009093700091E09093B0009091B100987F3B
:1006000094609093B1001092B300E3CFAF92BF9289
:10061000CF92DF92EF92FF920F931F93CF93DF93CE
:100620006C017B018B01040F151FEB015E01AE18FD
:10063000BF08C017D10759F06991D601ED91FC911F
:100640000190F081E02DC6010995892B79F7C5014C
:10065000DF91CF911F910F91FF90EF90DF90CF909E
:10066000BF90AF900895FC01538D448D252F30E04D
:10067000842F90E0821B930B541710F0CF960895AF
:1006800001970895FC01918D828D981761F0A28DDC
:10069000AE0FBF2FB11D5D968C91928D9F5F9F73A2
:1006A000928F90E008958FEF9FEF0895FC01918D58
:1006B000828D981731F0828DE80FF11D858D90E0C5
:1006C00008958FEF9FEF0895FC01918D228D892F62
:1006D00090E0805C9F4F821B91098F73992708954A
:1006E00089E991E00E94640321E0892B09F420E06C
:1006F000822F089580E090E0892B29F00E947003FA
:1007000081110C9400000895FC01A48DA80FB92F4D
:10071000B11DA35ABF4F2C91848D90E001968F7329
:100720009927848FA689B7892C93A089B1898C9148
:10073000837080648C93938D848D981306C0028897
:10074000F389E02D80818F7D80830895EF92FF9261
:100750000F931F93CF93DF93EC0181E0888F9B8DE4
:100760008C8D98131AC0E889F989808185FF15C09E
:100770009FB7F894EE89FF896083E889F9898081C1
:100780008370806480839FBF81E090E0DF91CF9190
:100790001F910F91FF90EF900895F62E0B8D10E0B2
:1007A0000F5F1F4F0F731127E02E8C8D8E110CC021
:1007B0000FB607FCFACFE889F989808185FFF5CF6C
:1007C000CE010E948403F1CFEB8DEC0FFD2FF11DC4
:1007D000E35AFF4FF0829FB7F8940B8FEA89FB89A9
:1007E00080818062CFCFCF93DF93EC01888D882307
:1007F000B9F0AA89BB89E889F9898C9185FD03C084
:10080000808186FD0DC00FB607FCF7CF8C9185FF68
:10081000F2CF808185FFEDCFCE010E948403E9CF26
:10082000DF91CF910895089590E080E00895FC0154
:1008300001900020E9F73197AF01481B590BBC012B
:1008400086E392E00C9406038F929F92AF92BF9240
:100850000F931F93CF93DF93CDB7DEB7A1970FB65A
:10086000F894DEBF0FBECDBF19A2423008F44AE0B3
:100870008E010F5D1F4F842E912CB12CA12CA50150
:1008800094010E94C60BE62FB901CA01EA30F4F4C4
:10089000E05DD801EE938D01232B242B252B79F7D6
:1008A00090E080E0109719F0CD010E941704A19606
:1008B0000FB6F894DEBF0FBECDBFDF91CF911F9171
:1008C0000F91BF90AF909F908F900895E95CE1CF1A
:1008D000CF93DF93EC0160E08E810E94DF0061E046
:1008E0008E810E94DF0060E08E810E94DF008BE835
:1008F00091E00197F1F7DF91CF910895CF92DF92C8
:10090000EF92FF920F931F93CF93DF936C017C01C3
:1009100087E0E80EF11CD0E0C0E0062F10E0B8013F
:100920000C2E02C0759567950A94E2F76170F70185
:1009300081917F010E94DF002196C430D10579F7B3
:10094000C601DF91CF911F910F91FF90EF90DF9043
:10095000CF900C946804CF92DF92EF92FF920F93A6
:100960001F93CF93DF93EC01F62E642F8C810E94AE
:10097000DF008D818F3F19F060E00E94DF000F2DB6
:1009800010E08F8584FF25C06E0187E0C80ED11C62
:10099000F12CE12CB8010E2C02C0759567950A94D4
:1009A000E2F76170F60181916F010E94DF00FFEFB5
:1009B000EF1AFF0A88E0E816F10461F7CE01DF9133
:1009C000CF911F910F91FF90EF90DF90CF900C94FB
:1009D0006804B80184E0759567958A95E1F7CE01C2
:1009E0000E947E046F2DCE01DF91CF911F910F9158
:1009F000FF90EF90DF90CF900C947E0440E0682F42
:100A000086E392E00C94AB0481E00E94FE048BE349
:100A10009FE10197F1F70895CF93DF93613029F0BB
:100A2000909145029860909345026093490210921C
:100A30004A0290E490934B0280934C02805C809336
:100A40004D0261E080913A020E940D0180913B02CB
:100A50008F3F19F061E00E940D0161E080913C023E
:100A60000E940D01C6E3D2E09E01265332408091E0
:100A7000450284FD0BC084E090E0219628173907D9
:100A800044F461E08E810E940D01EECF88E090E099
:100A9000F4CF8BE39DE00197F1F760E080913A029B
:100AA0000E94DF0060E080913C020E94DF008091A4
:100AB0003B028F3F19F060E00E94DF008091450209
:100AC00084FD34C063E086E392E00E947E04CBE4C0
:100AD000D6E4CE010197F1F763E086E392E00E944D
:100AE0007E042197F1F763E086E392E00E947E04A2
:100AF00083E592E00197F1F762E086E392E00E94DD
:100B00007E048091450280620E94FE0484E080930E
:100B100046028CE00E94FE040E94040582E080935D
:100B2000470286E0DF91CF910C94FE0480620E9420
:100B3000FE048BE496E40197F1F780914502806210
:100B40000E94FE0483E592E00197F1F7809145024F
:100B500080620E94FE04D5CF90914902891710F05F
:100B60008FEF890FE82FF0E0EA5CFD4F8489806801
:100B70000C94FE0441E00E94AB0481E090E00895F3
:100B8000CF92DF92EF92FF926C01990FEE08FF086F
:100B9000F7FE16C041E06DE286E392E00E94AB04EE
:100BA00066277727CB016C197D098E099F094AE0DA
:100BB0000E9424040196FF90EF90DF90CF9008955B
:100BC0004AE0C701B601FF90EF90DF90CF900C9400
:100BD00024041F920F920FB60F9211242F933F936C
:100BE0008F939F93AF93BF938091800190918101E8
:100BF000A0918201B091830130917F0123E0230F06
:100C00002D3758F50196A11DB11D20937F018093CA
:100C1000800190938101A0938201B0938301809120
:100C2000840190918501A0918601B0918701019680
:100C3000A11DB11D8093840190938501A09386012D
:100C4000B0938701BF91AF919F918F913F912F9169
:100C50000F900FBE0F901F90189526E8230F029655
:100C6000A11DB11DD2CF1F920F920FB60F9211246A
:100C70002F933F934F935F936F937F938F939F93A4
:100C8000AF93BF93EF93FF9380918D0190918E016D
:100C9000A0918F01B0919001892B8A2B8B2BD1F1E0
:100CA00090918801E0918901F0918A0180818927E2
:100CB000808380918D0190918E01A0918F01B091E0
:100CC0009001181619061A061B069CF480918D01D6
:100CD00090918E01A0918F01B09190010197A1098F
:100CE000B10980938D0190938E01A0938F01B093F1
:100CF0009001FF91EF91BF91AF919F918F917F9163
:100D00006F915F914F913F912F910F900FBE0F9078
:100D10001F901895809100010E94DA02EACF1F927D
:100D20000F920FB60F9211242F933F934F935F931F
:100D30006F937F938F939F93AF93BF93EF93FF93A3
:100D400089E991E00E948403FF91EF91BF91AF91F7
:100D50009F918F917F916F915F914F913F912F91D3
:100D60000F900FBE0F901F9018951F920F920FB605
:100D70000F9211242F938F939F93EF93FF93E09102
:100D8000A901F091AA018081E091AF01F091B00139
:100D900082FD1BC090818091B2018F5F8F73209183
:100DA000B301821741F0E091B201F0E0E756FE4F47
:100DB000958F8093B201FF91EF919F918F912F9129
:100DC0000F900FBE0F901F9018958081F4CFE9E926
:100DD000F1E01382128288EE93E0A0E0B0E0848319
:100DE0009583A683B78385E091E09183808385EC2A
:100DF00090E09587848784EC90E09787868780ECE5
:100E000090E0918B808B81EC90E0938B828B82ECD5
:100E100090E0958B848B86EC90E0978B868B118E7F
:100E2000128E138E148EE6E3F2E01382128287E1B3
:100E300091E09183808387E084838FEF858386E0D0
:100E4000868385E0878384E0808783E0818782E0F2
:100E500082871386148615861686178661E080E1E0
:100E60000C940C05789484B5826084BD84B581604F
:100E700084BD85B5826085BD85B5816085BD809165
:100E80006E00816080936E001092810080918100DD
:100E900082608093810080918100816080938100D5
:100EA000809180008160809380008091B100846097
:100EB0008093B1008091B00081608093B0008091F8
:100EC0007A00846080937A0080917A0082608093B7
:100ED0007A0080917A00816080937A0080917A0014
:100EE000806880937A001092C100E091A901F0918E
:100EF000AA0182E08083E091A501F091A601108211
:100F0000E091A701F091A8018FEC80831092B101CC
:100F1000E091AD01F091AE0186E08083E091AB01FC
:100F2000F091AC01808180618083E091AB01F09110
:100F3000AC01808188608083E091AB01F091AC01CD
:100F4000808180688083E091AB01F091AC01808169
:100F50008F7D808364E084E10E940C0560E088E07E
:100F60000E940D0160E08EE00E940D0161E08BE0C7
:100F70000E940D0161E08CE00E940D0161E08AE0B9
:100F80000E940D0161E08DE00E940D0162E089E0A8
:100F90000E940D0162E080E00E940D0162E083E1A9
:100FA0000E940D010E94040580E00E94AC058FE1C3
:100FB00091E00E94170468EE73E080E090E00E94E8
:100FC000A8020E94040596E0692E772473948FB7D7
:100FD000F894C0908001D0908101E0908201F0905F
:100FE00083018FBF89E00E94B600892BE1F464E69B
:100FF00070E080E090E00E94A80270927E018FB7BE
:10100000F89440918001509181016091820170912A
:1010100083018FBF10927D0110927C010E94040514
:101020008DE00E94DA0280E00E94B600892B41F533
:1010300064E670E080E090E00E94A80210927E01D9
:101040000E94040580E00E94AC058EE291E00E94BF
:10105000170460E08BE00E94DF0060E08CE00E94FB
:10106000DF0060E08AE00E94DF008DE00E94DA028B
:1010700068EE73E080E090E00E94A8020E94040500
:1010800083E10E94B600892B59F464E670E080E0A9
:1010900090E00E94A80270927B018DE00E94DA022B
:1010A00080917E01882309F4CDC0809177019091D1
:1010B0007801A0917901B0917A01A7019601281BCE
:1010C000390B4A0B5B0BDA01C901803D9740A10542
:1010D000B10508F4B7C0C0927701D0927801E092D0
:1010E0007901F0927A0140E440937C0080917A008B
:1010F000806480937A0080917A0086FDFCCF6091B5
:10110000780070917900072E000C880B990B0E94D3
:101110009F0A2AE038E240EA5BE30E94540B20E099
:1011200030E048EC52E40E94540B6B017C0188E0F3
:101130000E94B6008130910509F091C0809176013E
:10114000811116C080917C0190917D017092760191
:10115000019690937D0180937C018FB7F894409124
:1011600080015091810160918201709183018FBF54
:1011700080917C0190917D01689EE001699ED00D77
:101180001124BE01D7FF02C06F5F7F4F7595679531
:10119000072E000C880B990B0E949F0A4B015C01E3
:1011A000A7019601C701B6010E94F6099B01AC0197
:1011B000C501B4010E94F6090E94670A4B018B0128
:1011C0000E94040580E00E94AC0581E491E00E9449
:1011D0001704CE010E94C00581E00E94AC058EE498
:1011E00091E00E941704A7019601C701B6010E9471
:1011F000C10B8823D1F18AE591E00E94170486E6AD
:1012000091E00E94170482E00E94AC0589E691E01B
:101210000E941704C4010E94C005013511050CF09D
:10122000B8C061E08BE00E94DF0060E08CE00E94CB
:10123000DF0060E08AE00E94DF008DE00E94DA02B9
:1012400010927B0120E030E0232B09F4C0CE0E94F5
:101250007003882309F4BBCE0E940000B8CE892B0E
:1012600009F086CF1092760183CF16012701E8940A
:1012700057F82FEF3FEF4FE75FE7C201B1010E9440
:10128000C10B81110DC02FEF3FEF4FE75FE7C201A8
:10129000B1010E94620A18161CF48EE591E0ADCFF0
:1012A0002FEF3FEF4FE75FE4C701B6010E944F0BFE
:1012B00018161CF482E691E0A0CF2FEF3FEF4FE726
:1012C0005FECC701B6010E94620A87FDF3CF20E000
:1012D00030E0A901C701B6010E94620A87FF0AC077
:1012E00041E06DE286E392E00E94AB04F7FAF094ED
:1012F000F7F8F0942AE037ED43EA5BE3C701B60163
:101300000E94F6091B012C010E946E0A6B017C01F0
:101310000E949D0A9B01AC01C201B1010E94F50926
:101320001B012C014AE0C701B6010E94240441E0E0
:101330006EE286E392E00E94AB0420E030E040E2FF
:1013400051E4C201B1010E94540B1B012C010E9407
:101350006E0A6B01F12CE12C4AE0C701B6010E9434
:101360002404C701B6010E949D0A9B01AC01C20181
:10137000B1010E94F50920E030E040E251E40E9412
:10138000540B0E946E0A90E080E04AE00E94240420
:1013900036CFC0917B0151E5851A910860E084E168
:1013A0008816910490F48BE00E94DF0061E08CE0ED
:1013B0000E94DF0060E08AE00E94DF0080ED97E09D
:1013C000C11140CF0E9449013DCF8BE00E94DF0058
:1013D00060E08CE00E94DF0061E08AE00E94DF00B4
:1013E000C11130CF80EA9FE0EDCF5058BB27AA272C
:1013F0000E940D0A0C94150B0E94070B38F00E94F6
:101400000E0B20F039F49F3F19F426F40C94040BD2
:101410000EF4E095E7FB0C94FE0AE92F0E94260BE0
:1014200058F3BA17620773078407950720F079F419
:10143000A6F50C94480B0EF4E0950B2EBA2FA02DB8
:101440000B01B90190010C01CA01A0011124FF2771
:10145000591B99F0593F50F4503E68F11A16F0406C
:10146000A22F232F342F4427585FF3CF469537956B
:101470002795A795F0405395C9F77EF41F16BA0B30
:10148000620B730B840BBAF09150A1F0FF0FBB1FDE
:10149000661F771F881FC2F70EC0BA0F621F731F27
:1014A000841F48F4879577956795B795F7959E3F84
:1014B00008F0B0CF9395880F08F09927EE0F979515
:1014C000879508950E94DA0A08F481E008950E9441
:1014D0006E0A6894B1110C94490B08950E942E0B6A
:1014E00088F09F5798F0B92F9927B751B0F0E1F0E5
:1014F000660F771F881F991F1AF0BA95C9F714C095
:10150000B13091F00E94480BB1E008950C94480B63
:10151000672F782F8827B85F39F0B93FCCF38695CD
:1015200077956795B395D9F73EF49095809570952A
:1015300061957F4F8F4F9F4F0895E89409C097FBA7
:101540003EF490958095709561957F4F8F4F9F4F9A
:101550009923A9F0F92F96E9BB279395F6958795DE
:1015600077956795B795F111F8CFFAF4BB0F11F4A1
:1015700060FF1BC06F5F7F4F8F4F9F4F16C0882348
:1015800011F096E911C0772321F09EE8872F762F7E
:1015900005C0662371F096E8862F70E060E02AF0BF
:1015A0009A95660F771F881FDAF7880F96958795AB
:1015B00097F90895990F0008550FAA0BE0E8FEEF80
:1015C00016161706E807F907C0F012161306E40707
:1015D000F50798F0621B730B840B950B39F40A2600
:1015E00061F0232B242B252B21F408950A2609F4DE
:1015F000A140A6958FEF811D811D089597F99F67E2
:1016000080E870E060E008959FEF80EC089500248A
:101610000A941616170618060906089500240A9457
:1016200012161306140605060895092E0394000CDD
:1016300011F4882352F0BB0F40F4BF2B11F460FF6C
:1016400004C06F5F7F4F8F4F9F4F089557FD905895
:10165000440F551F59F05F3F71F04795880F97FB76
:10166000991F61F09F3F79F0879508951216130630
:101670001406551FF2CF4695F1DF08C0161617065F
:101680001806991FF1CF8695710561050894089594
:10169000E894BB2766277727CB0197F908950E9426
:1016A000DA0A08F48FEF08950E94670B0C94150B6B
:1016B0000E94070B38F00E940E0B20F0952311F0CA
:1016C0000C94FE0A0C94040B11240C94490B0E94F8
:1016D000260B70F3959FC1F3950F50E0551F629F45
:1016E000F001729FBB27F00DB11D639FAA27F00D7B
:1016F000B11DAA1F649F6627B00DA11D661F829FA2
:101700002227B00DA11D621F739FB00DA11D621F86
:10171000839FA00D611D221F749F3327A00D611DA3
:10172000231F849F600D211D822F762F6A2F112485
:101730009F5750409AF0F1F088234AF0EE0FFF1FB8
:10174000BB1F661F771F881F91505040A9F79E3F0F
:10175000510580F00C94FE0A0C94490B5F3FE4F3B2
:10176000983ED4F3869577956795B795F795E79565
:101770009F5FC1F7FE2B880F911D9695879597F96E
:1017800008950E94DA0A880B990B0895A1E21A2E97
:10179000AA1BBB1BFD010DC0AA1FBB1FEE1FFF1F15
:1017A000A217B307E407F50720F0A21BB30BE40B65
:1017B000F50B661F771F881F991F1A9469F76095AC
:1017C0007095809590959B01AC01BD01CF01089566
:1017D000052E97FB1EF400940E94FF0B57FD07D0C7
:1017E0000E94C60B07FC03D04EF40C94FF0B5095DF
:1017F0004095309521953F4F4F4F5F4F08959095FD
:101800008095709561957F4F8F4F9F4F0895EE0F94
:0E181000FF1F0590F491E02D0994F894FFCF8E
:10181E00FF00000000A60306033303F30364034234
:10182E0003560300000000BA05060314041304480F
:10183E0065616C7468204D6F6E69746F72004D6FC8
:10184E006E69746F72696E672053746F7070656421
:10185E0000484220706572204D696E3A2000426F3A
:10186E0064792054656D703A20006E616E00696E69
:10187E0066006F7666002043005269736B205363D7
:06188E006F72653A2000B4
:00000001FF
