:020000040000FA
:100000000C9462000C948A000C948A000C948A0070
:100010000C948A000C948A000C948A000C948A0038
:100020000C948A000C948A000C948A000C948A0028
:100030000C948A000C94DF030C948A000C948A00C0
:100040000C9495030C948A000C948A000C948A00FA
:100050000C948A000C948A000C948A000C948A00F8
:100060000C948A000C948A000000000024002700F1
:100070002A0000000000250028002B0000000000DE
:1000800023002600290004040404040404040202DA
:100090000202020203030303030301020408102007
:1000A0004080010204081020010204081020000012
:1000B0000008000201000003040700000000000027
:1000C0000000260611241FBECFEFD8E0DEBFCDBF53
:1000D00011E0A0E0B1E0E6E5F1E102C005900D928B
:1000E000A635B107D9F721E0A6E5B1E001C01D9220
:1000F000A738B207E1F710E0C2E6D0E004C02197CC
:10010000FE010E94A308C136D107C9F70E94060468
:100110000C94A9080C940000AF92BF92CF92DF928A
:10012000EF92FF920F931F93CF93DF936C017B01AC
:100130008B01040F151FEB015E01AE18BF08C0173D
:10014000D10759F06991D601ED91FC910190F081B0
:10015000E02DC6010995892B79F7C501DF91CF9173
:100160001F910F91FF90EF90DF90CF90BF90AF90D5
:100170000895833081F028F4813099F08230A9F01D
:1001800008958730A9F08830C9F08430B1F48091A7
:1001900080008F7D03C0809180008F7780938000E6
:1001A000089584B58F7784BD089584B58F7DFBCF86
:1001B0008091B0008F778093B00008958091B00057
:1001C0008F7DF9CFCF93DF93282F30E0F901E255EF
:1001D000FF4F8491F901E656FF4FD491F901EA5798
:1001E000FF4FC491CC23A1F081110E94B900EC2FE4
:1001F000F0E0EE0FFF1FE458FF4FA591B491EC9192
:10020000ED2381E090E009F480E0DF91CF91089543
:1002100080E090E0FACF1F93CF93DF93282F30E058
:10022000F901E255FF4F8491F901E656FF4FD49151
:10023000F901EA57FF4FC491CC23A9F0162F811181
:100240000E94B900EC2FF0E0EE0FFF1FEE58FF4FB9
:10025000A591B4918FB7F894EC91111108C0D09585
:10026000DE23DC938FBFDF91CF911F910895DE2BAA
:10027000F8CFCF93DF9390E0FC01E656FF4F249137
:100280008A579F4FFC0184918823C9F090E0880F22
:10029000991FFC01E859FF4FA591B491FC01EE585C
:1002A000FF4FC591D49161110DC09FB7F8948C9107
:1002B000209582238C938881282328839FBFDF91F8
:1002C000CF910895623051F49FB7F8943C91822FFA
:1002D000809583238C93E8812E2BEFCF8FB7F894F2
:1002E000EC912E2B2C938FBFEACF3FB7F8948091DF
:1002F0005B0190915C01A0915D01B0915E0126B51A
:10030000A89B05C02F3F19F00196A11DB11D3FBF4D
:10031000BA2FA92F982F8827BC01CD01620F711D1C
:10032000811D911D42E0660F771F881F991F4A9516
:10033000D1F70895089590E080E00895FC010190C0
:100340000020E9F73197AF01481B590BBC018FE63C
:1003500091E00C948C008F929F92AF92BF920F937A
:100360001F93CF93DF93CDB7DEB7A1970FB6F89465
:10037000DEBF0FBECDBF19A2423008F44AE08E01A5
:100380000F5D1F4F842E912CB12CA12CA50194013F
:100390000E948108E62FB901CA01EA30F4F4E05D59
:1003A000D801EE938D01232B242B252B79F790E098
:1003B00080E0109719F0CD010E949E01A1960FB622
:1003C000F894DEBF0FBECDBFDF91CF911F910F918B
:1003D000BF90AF909F908F900895E95CE1CFCF934D
:1003E000DF93EC0160E08E810E940B0161E08E8161
:1003F0000E940B0160E08E810E940B018BE891E06E
:100400000197F1F7DF91CF910895CF92DF92EF92AC
:10041000FF920F931F93CF93DF936C017C0187E0D2
:10042000E80EF11CD0E0C0E0062F10E0B8010C2E61
:1004300002C0759567950A94E2F76170F7018191A2
:100440007F010E940B012196C430D10579F7C601C6
:10045000DF91CF911F910F91FF90EF90DF90CF90A0
:100460000C94EF01CF92DF92EF92FF920F931F93C4
:10047000CF93DF93EC01F62E642F8C810E940B0149
:100480008D818F3F19F060E00E940B010F2D10E06D
:100490008F8584FF25C06E0187E0C80ED11CF12C2A
:1004A000E12CB8010E2C02C0759567950A94E2F70D
:1004B0006170F60181916F010E940B01FFEFEF1A4D
:1004C000FF0A88E0E816F10461F7CE01DF91CF91D1
:1004D0001F910F91FF90EF90DF90CF900C94EF0160
:1004E000B80184E0759567958A95E1F7CE010E9481
:1004F00005026F2DCE01DF91CF911F910F91FF90DB
:10050000EF90DF90CF900C94050240E0682F8FE6CB
:1005100091E00C943202CF93DF93613029F09091F7
:100520007E01986090937E01609382011092830116
:1005300090E49093840180938501805C8093860190
:1005400061E0809173010E943901809174018F3FB5
:1005500019F061E00E94390161E0809175010E940B
:100560003901CFE6D1E09E012F56314080917E01C6
:1005700084FD0BC084E090E021962817390744F4ED
:1005800061E08E810E943901EECF88E090E0F4CFE7
:100590008BE39DE00197F1F760E0809173010E9489
:1005A0000B0160E0809175010E940B018091740144
:1005B0008F3F19F060E00E940B0180917E0184FD65
:1005C00039C063E08FE691E00E940502CBE4D6E4F7
:1005D000CE010197F1F763E08FE691E00E940502FA
:1005E0002197F1F763E08FE691E00E94050283E531
:1005F00092E00197F1F762E08FE691E00E94050238
:1006000080917E0180620E94850284E080937F0158
:100610008CE00E94850281E00E9485028BE39FE1CD
:100620000197F1F782E08093800186E0DF91CF911E
:100630000C94850280620E9485028BE496E4019707
:10064000F1F780917E0180620E94850283E592E04D
:100650000197F1F780917E0180620E948502D0CFE0
:1006600090918201691710F06FEF690FE62FF0E0AB
:10067000E159FE4F9489890F80680C94850241E00E
:100680000E94320281E090E00895CF92DF92EF92D3
:10069000FF926B017C0141E06DE28FE691E00E94E8
:1006A000320266277727CB016C197D098E099F09D5
:1006B0004AE00E94AB010196FF90EF90DF90CF904F
:1006C0000895CF93DF9380916D0190916E01019712
:1006D000F9F4C0916701D09168012196D093680127
:1006E000C093670161E08EE00E943003BE01DD0F20
:1006F000880B990B97FF08C00E94450389E191E0A0
:10070000DF91CF910C949E014AE00E94AB01F6CF9D
:10071000DF91CF910895BC01990F880B990B97FD3C
:100720000C9445034AE00C94AB011F920F920FB654
:100730000F9211242F933F938F939F93AF93BF9367
:100740008091570190915801A0915901B0915A019F
:100750003091560123E0230F2D3758F50196A11D46
:10076000B11D209356018093570190935801A09397
:100770005901B0935A0180915B0190915C01A09165
:100780005D01B0915E010196A11DB11D80935B01D9
:1007900090935C01A0935D01B0935E01BF91AF9116
:1007A0009F918F913F912F910F900FBE0F901F90AF
:1007B000189526E8230F0296A11DB11DD2CF1F92D6
:1007C0000F920FB60F9211242F933F934F935F9385
:1007D0006F937F938F939F93AF93BF93EF93FF9309
:1007E000E0916301F09164010995FF91EF91BF9150
:1007F000AF919F918F917F916F915F914F913F91B9
:100800002F910F900FBE0F901F901895789484B57C
:10081000826084BD84B5816084BD85B5826085BDFC
:1008200085B5816085BD80916E00816080936E008A
:10083000109281008091810082608093810080917C
:10084000810081608093810080918000816080932D
:1008500080008091B10084608093B1008091B000ED
:1008600081608093B00080917A00846080937A00E8
:1008700080917A00826080937A0080917A00816012
:1008800080937A0080917A00806880937A00109239
:10089000C10064E084E10E948B0260E088E00E9475
:1008A000390162E089E00E9439011092800080E104
:1008B0008093810084E0809361018FB7809362010F
:1008C000F89488EA91E69093600180935F01909399
:1008D000870080938600809162018FBF80918100A4
:1008E000887F809381009091810020916101922BFB
:1008F0009093810081E693E090936401809363017B
:1009000081E080936F0080918100822B8093810031
:1009100081E00E9485028BE39FE10197F1F760E09F
:1009200080E00E9430038CE091E00E949E0161E033
:1009300080E00E9430038BE191E00E949E0162E022
:1009400080E00E9430038AE291E00E949E0163E011
:1009500080E00E9430038CE391E00E949E0196E0CB
:10096000292E20E4322E00E010E0C1E0D0E089E042
:100970000E94E200892B21F4D0936E01C0936D0197
:1009800080916D0190916E01019709F05FC088E040
:100990000E94E2008130910501F520916B013091B8
:1009A0006C01232BD1F4E0906901F0906A012FEFE4
:1009B000E21AF20AF0926A01E092690190936C01E6
:1009C00080936B0160E08EE00E943003C7010E94BB
:1009D0008B0389E191E00E949E0188E00E94E20081
:1009E000892B51F480916B0190916C01019721F456
:1009F00010926C0110926B018091670190916801D7
:100A00000A9721F58091690190916A01289E7001F1
:100A1000299EF00C1124F0926601E092650110927B
:100A20006E0110926D0162E08EE00E943003C701FA
:100A30000E948B0389E191E00E949E0110926A015D
:100A400010926901109268011092670130927C0047
:100A500080917A00806480937A0080917A0086FD8C
:100A6000FCCF6091780070917900072E000C880B04
:100A7000990B0E945A0720E030E040E85AE30E94B8
:100A80000F0820E030E44CE955E40E940F0820E014
:100A900030E040E251E40E94B7066B017C014B015B
:100AA0005C0163E08EE00E943003A7019601C7015C
:100AB000B6010E947C08882399F18AE491E00E94A3
:100AC0009E0189E191E00E949E010E9475014B0107
:100AD0005C0184E6C82ED12CE12CF12C0E9475011A
:100AE000681979098A099B09683E73408105910557
:100AF000A8F381E0C81AD108E108F10828EE820EB7
:100B000023E0921EA11CB11CC114D104E104F10424
:100B100029F70115110509F42ACF0E94000027CFFB
:100B200026013701E89477F82FEF3FEF4FE75FE7B3
:100B3000C301B2010E947C0881110DC02FEF3FEF6D
:100B40004FE75FE7C301B2010E94B20618161CF41A
:100B50008EE491E0B4CF2FEF3FEF4FE75FE4C701A2
:100B6000B6010E940A0818161CF482E591E0A7CF8E
:100B70002FEF3FEF4FE75FECC701B6010E94B206CF
:100B800087FDF3CF20E030E0A901C701B6010E9444
:100B9000B20687FF0CC041E06DE28FE691E00E9453
:100BA000320246015701B7FAB094B7F8B0942AE080
:100BB00037ED43EA5BE3C501B4010E9446064B01F1
:100BC0005C010E9429076B017C010E9458079B0170
:100BD000AC01C501B4010E9445064B015C014AE02D
:100BE000C701B6010E94AB0141E06EE28FE691E0E1
:100BF0000E94320220E030E040E251E4C501B4013D
:100C00000E940F084B015C010E9429076B01F12C27
:100C1000E12C4AE0C701B6010E94AB01C701B60151
:100C20000E9458079B01AC01C501B4010E94450612
:100C300020E030E040E251E40E940F080E942907C2
:100C400090E080E04AE00E94AB013BCFEFE6F1E0AC
:100C50001382128284E091E09183808387E0848311
:100C60008FEF858386E0868385E0878384E08087B5
:100C700083E0818782E08287138614861586168634
:100C8000178661E080E10C948B025058BB27AA279D
:100C90000E945D060C94D0070E94C20738F00E94A3
:100CA000C90720F039F49F3F19F426F40C94BF07CC
:100CB0000EF4E095E7FB0C94B907E92F0E94E107D9
:100CC00058F3BA17620773078407950720F079F481
:100CD000A6F50C9403080EF4E0950B2EBA2FA02D68
:100CE0000B01B90190010C01CA01A0011124FF27D9
:100CF000591B99F0593F50F4503E68F11A16F040D4
:100D0000A22F232F342F4427585FF3CF46953795D2
:100D10002795A795F0405395C9F77EF41F16BA0B97
:100D2000620B730B840BBAF09150A1F0FF0FBB1F45
:100D3000661F771F881FC2F70EC0BA0F621F731F8E
:100D4000841F48F4879577956795B795F7959E3FEB
:100D500008F0B0CF9395880F08F09927EE0F97957C
:100D6000879508950E94950708F481E008950E94F0
:100D7000CB060C94D0070E94C90758F00E94C20706
:100D800040F029F45F3F29F00C94B90751110C94FD
:100D900004080C94BF070E94E10768F39923B1F39C
:100DA000552391F3951B550BBB27AA276217730791
:100DB000840738F09F5F5F4F220F331F441FAA1F25
:100DC000A9F335D00E2E3AF0E0E832D091505040E1
:100DD000E695001CCAF72BD0FE2F29D0660F771F8F
:100DE000881FBB1F261737074807AB07B0E809F075
:100DF000BB0B802DBF01FF2793585F4F3AF09E3FFA
:100E0000510578F00C94B9070C9404085F3FE4F3A3
:100E1000983ED4F3869577956795B795F7959F5F3C
:100E2000C9F7880F911D9695879597F90895E1E088
:100E3000660F771F881FBB1F621773078407BA07E7
:100E400020F0621B730B840BBA0BEE1F88F7E09542
:100E500008950E94E90788F09F5798F0B92F9927C5
:100E6000B751B0F0E1F0660F771F881F991F1AF095
:100E7000BA95C9F714C0B13091F00E940308B1E0EF
:100E800008950C940308672F782F8827B85F39F0EE
:100E9000B93FCCF3869577956795B395D9F73EF42E
:100EA00090958095709561957F4F8F4F9F4F0895D6
:100EB000E89409C097FB3EF49095809570956195F4
:100EC0007F4F8F4F9F4F9923A9F0F92F96E9BB27AA
:100ED0009395F695879577956795B795F111F8CF26
:100EE000FAF4BB0F11F460FF1BC06F5F7F4F8F4F91
:100EF0009F4F16C0882311F096E911C0772321F087
:100F00009EE8872F762F05C0662371F096E8862F1E
:100F100070E060E02AF09A95660F771F881FDAF775
:100F2000880F9695879597F90895990F0008550FA2
:100F3000AA0BE0E8FEEF16161706E807F907C0F05F
:100F400012161306E407F50798F0621B730B840B67
:100F5000950B39F40A2661F0232B242B252B21F441
:100F600008950A2609F4A140A6958FEF811D811DE1
:100F7000089597F99F6780E870E060E008959FEF1B
:100F800080EC089500240A94161617061806090620
:100F9000089500240A9412161306140605060895EF
:100FA000092E0394000C11F4882352F0BB0F40F477
:100FB000BF2B11F460FF04C06F5F7F4F8F4F9F4FB7
:100FC000089557FD9058440F551F59F05F3F71F039
:100FD0004795880F97FB991F61F09F3F79F08795A0
:100FE0000895121613061406551FF2CF4695F1DF29
:100FF00008C0161617061806991FF1CF86957105B9
:10100000610508940895E894BB2766277727CB01EC
:1010100097F908950E94950708F48FEF08950E94AC
:1010200022080C94D0070E94C20738F00E94C9071A
:1010300020F0952311F00C94B9070C94BF071124EC
:101040000C9404080E94E10770F3959FC1F3950F7B
:1010500050E0551F629FF001729FBB27F00DB11D3C
:10106000639FAA27F00DB11DAA1F649F6627B00DCC
:10107000A11D661F829F2227B00DA11D621F739FB5
:10108000B00DA11D621F839FA00D611D221F749FC3
:101090003327A00D611D231F849F600D211D822F0A
:1010A000762F6A2F11249F5750409AF0F1F0882331
:1010B0004AF0EE0FFF1FBB1F661F771F881F91505E
:1010C0005040A9F79E3F510580F00C94B9070C944D
:1010D00004085F3FE4F3983ED4F3869577956795CF
:1010E000B795F795E7959F5FC1F7FE2B880F911D88
:1010F0009695879597F908950E949507880B990B07
:101100000895A1E21A2EAA1BBB1BFD010DC0AA1F48
:10111000BB1FEE1FFF1FA217B307E407F50720F060
:10112000A21BB30BE40BF50B661F771F881F991FDB
:101130001A9469F760957095809590959B01AC0124
:10114000BD01CF010895EE0FFF1F0590F491E02D32
:101150000994F894FFCF000000003F038C009B012E
:101160009A0143757272656E7420484220203A20BD
:101170000054696D6520696E20536563203A200034
:10118000484220706572204D696E20203A20302E32
:101190003000426F64792054656D7020203A200041
:0C11A0006E616E00696E66006F7666007E
:107E0000112484B714BE81FFF0D085E080938100F7
:107E100082E08093C00088E18093C10086E0809377
:107E2000C20080E18093C4008EE0C9D0259A86E02C
:107E300020E33CEF91E0309385002093840096BBD3
:107E4000B09BFECF1D9AA8958150A9F7CC24DD24C4
:107E500088248394B5E0AB2EA1E19A2EF3E0BF2EE7
:107E6000A2D0813461F49FD0082FAFD0023811F036
:107E7000013811F484E001C083E08DD089C08234E0
:107E800011F484E103C0853419F485E0A6D080C0E4
:107E9000853579F488D0E82EFF2485D0082F10E0AE
:107EA000102F00270E291F29000F111F8ED06801E7
:107EB0006FC0863521F484E090D080E0DECF843638
:107EC00009F040C070D06FD0082F6DD080E0C81688
:107ED00080E7D80618F4F601B7BEE895C0E0D1E017
:107EE00062D089930C17E1F7F0E0CF16F0E7DF06D8
:107EF00018F0F601B7BEE89568D007B600FCFDCFD4
:107F0000A601A0E0B1E02C9130E011968C91119780
:107F100090E0982F8827822B932B1296FA010C0160
:107F200087BEE89511244E5F5F4FF1E0A038BF0790
:107F300051F7F601A7BEE89507B600FCFDCF97BE46
:107F4000E89526C08437B1F42ED02DD0F82E2BD052
:107F50003CD0F601EF2C8F010F5F1F4F84911BD097
:107F6000EA94F801C1F70894C11CD11CFA94CF0C13
:107F7000D11C0EC0853739F428D08EE10CD085E9AC
:107F80000AD08FE07ACF813511F488E018D01DD067
:107F900080E101D065CF982F8091C00085FFFCCF94
:107FA0009093C60008958091C00087FFFCCF809118
:107FB000C00084FD01C0A8958091C6000895E0E648
:107FC000F0E098E1908380830895EDDF803219F02E
:107FD00088E0F5DFFFCF84E1DECF1F93182FE3DFCA
:107FE0001150E9F7F2DF1F91089580E0E8DFEE27F6
:047FF000FF270994CA
:027FFE00040479
:00000001FF
